{
  "_format": "hh-sol-artifact-1",
  "contractName": "CertichaNFT",
  "sourceName": "contracts/CertichaNFT.sol",
  "abi": [
    {
      "inputs": [
        {
          "internalType": "address",
          "name": "_owner",
          "type": "address"
        },
        {
          "internalType": "string",
          "name": "_name",
          "type": "string"
        },
        {
          "internalType": "string",
          "name": "_symbol",
          "type": "string"
        }
      ],
      "stateMutability": "nonpayable",
      "type": "constructor"
    },
    {
      "inputs": [
        {
          "internalType": "address",
          "name": "recipient",
          "type": "address"
        },
        {
          "internalType": "string",
          "name": "programName",
          "type": "string"
        }
      ],
      "name": "CertificateAlreadyIssued",
      "type": "error"
    },
    {
      "inputs": [
        {
          "internalType": "uint256",
          "name": "tokenId",
          "type": "uint256"
        }
      ],
      "name": "CertificateDoesNotExist",
      "type": "error"
    },
    {
      "inputs": [
        {
          "internalType": "address",
          "name": "sender",
          "type": "address"
        },
        {
          "internalType": "uint256",
          "name": "tokenId",
          "type": "uint256"
        },
        {
          "internalType": "address",
          "name": "owner",
          "type": "address"
        }
      ],
      "name": "ERC721IncorrectOwner",
      "type": "error"
    },
    {
      "inputs": [
        {
          "internalType": "address",
          "name": "operator",
          "type": "address"
        },
        {
          "internalType": "uint256",
          "name": "tokenId",
          "type": "uint256"
        }
      ],
      "name": "ERC721InsufficientApproval",
      "type": "error"
    },
    {
      "inputs": [
        {
          "internalType": "address",
          "name": "approver",
          "type": "address"
        }
      ],
      "name": "ERC721InvalidApprover",
      "type": "error"
    },
    {
      "inputs": [
        {
          "internalType": "address",
          "name": "operator",
          "type": "address"
        }
      ],
      "name": "ERC721InvalidOperator",
      "type": "error"
    },
    {
      "inputs": [
        {
          "internalType": "address",
          "name": "owner",
          "type": "address"
        }
      ],
      "name": "ERC721InvalidOwner",
      "type": "error"
    },
    {
      "inputs": [
        {
          "internalType": "address",
          "name": "receiver",
          "type": "address"
        }
      ],
      "name": "ERC721InvalidReceiver",
      "type": "error"
    },
    {
      "inputs": [
        {
          "internalType": "address",
          "name": "sender",
          "type": "address"
        }
      ],
      "name": "ERC721InvalidSender",
      "type": "error"
    },
    {
      "inputs": [
        {
          "internalType": "uint256",
          "name": "tokenId",
          "type": "uint256"
        }
      ],
      "name": "ERC721NonexistentToken",
      "type": "error"
    },
    {
      "inputs": [
        {
          "internalType": "address",
          "name": "owner",
          "type": "address"
        }
      ],
      "name": "OwnableInvalidOwner",
      "type": "error"
    },
    {
      "inputs": [
        {
          "internalType": "address",
          "name": "account",
          "type": "address"
        }
      ],
      "name": "OwnableUnauthorizedAccount",
      "type": "error"
    },
    {
      "anonymous": false,
      "inputs": [
        {
          "indexed": true,
          "internalType": "address",
          "name": "owner",
          "type": "address"
        },
        {
          "indexed": true,
          "internalType": "address",
          "name": "approved",
          "type": "address"
        },
        {
          "indexed": true,
          "internalType": "uint256",
          "name": "tokenId",
          "type": "uint256"
        }
      ],
      "name": "Approval",
      "type": "event"
    },
    {
      "anonymous": false,
      "inputs": [
        {
          "indexed": true,
          "internalType": "address",
          "name": "owner",
          "type": "address"
        },
        {
          "indexed": true,
          "internalType": "address",
          "name": "operator",
          "type": "address"
        },
        {
          "indexed": false,
          "internalType": "bool",
          "name": "approved",
          "type": "bool"
        }
      ],
      "name": "ApprovalForAll",
      "type": "event"
    },
    {
      "anonymous": false,
      "inputs": [
        {
          "indexed": true,
          "internalType": "uint256",
          "name": "tokenId",
          "type": "uint256"
        },
        {
          "indexed": true,
          "internalType": "address",
          "name": "recipient",
          "type": "address"
        },
        {
          "indexed": false,
          "internalType": "string",
          "name": "name",
          "type": "string"
        },
        {
          "indexed": false,
          "internalType": "string",
          "name": "programName",
          "type": "string"
        }
      ],
      "name": "CertificateMinted",
      "type": "event"
    },
    {
      "anonymous": false,
      "inputs": [
        {
          "indexed": true,
          "internalType": "address",
          "name": "previousOwner",
          "type": "address"
        },
        {
          "indexed": true,
          "internalType": "address",
          "name": "newOwner",
          "type": "address"
        }
      ],
      "name": "OwnershipTransferred",
      "type": "event"
    },
    {
      "anonymous": false,
      "inputs": [
        {
          "indexed": true,
          "internalType": "address",
          "name": "from",
          "type": "address"
        },
        {
          "indexed": true,
          "internalType": "address",
          "name": "to",
          "type": "address"
        },
        {
          "indexed": true,
          "internalType": "uint256",
          "name": "tokenId",
          "type": "uint256"
        }
      ],
      "name": "Transfer",
      "type": "event"
    },
    {
      "inputs": [
        {
          "internalType": "address",
          "name": "to",
          "type": "address"
        },
        {
          "internalType": "uint256",
          "name": "tokenId",
          "type": "uint256"
        }
      ],
      "name": "approve",
      "outputs": [],
      "stateMutability": "nonpayable",
      "type": "function"
    },
    {
      "inputs": [
        {
          "internalType": "address",
          "name": "owner",
          "type": "address"
        }
      ],
      "name": "balanceOf",
      "outputs": [
        {
          "internalType": "uint256",
          "name": "",
          "type": "uint256"
        }
      ],
      "stateMutability": "view",
      "type": "function"
    },
    {
      "inputs": [
        {
          "internalType": "uint256",
          "name": "tokenId",
          "type": "uint256"
        }
      ],
      "name": "getApproved",
      "outputs": [
        {
          "internalType": "address",
          "name": "",
          "type": "address"
        }
      ],
      "stateMutability": "view",
      "type": "function"
    },
    {
      "inputs": [
        {
          "internalType": "uint256",
          "name": "tokenId",
          "type": "uint256"
        }
      ],
      "name": "getCertificateData",
      "outputs": [
        {
          "internalType": "string",
          "name": "name",
          "type": "string"
        },
        {
          "internalType": "string",
          "name": "programName",
          "type": "string"
        }
      ],
      "stateMutability": "view",
      "type": "function"
    },
    {
      "inputs": [],
      "name": "getCurrentTokenId",
      "outputs": [
        {
          "internalType": "uint256",
          "name": "",
          "type": "uint256"
        }
      ],
      "stateMutability": "view",
      "type": "function"
    },
    {
      "inputs": [
        {
          "internalType": "address",
          "name": "owner",
          "type": "address"
        },
        {
          "internalType": "address",
          "name": "operator",
          "type": "address"
        }
      ],
      "name": "isApprovedForAll",
      "outputs": [
        {
          "internalType": "bool",
          "name": "",
          "type": "bool"
        }
      ],
      "stateMutability": "view",
      "type": "function"
    },
    {
      "inputs": [
        {
          "internalType": "address",
          "name": "recipient",
          "type": "address"
        },
        {
          "internalType": "string[]",
          "name": "names",
          "type": "string[]"
        },
        {
          "internalType": "string",
          "name": "programName",
          "type": "string"
        }
      ],
      "name": "mintCertificates",
      "outputs": [],
      "stateMutability": "nonpayable",
      "type": "function"
    },
    {
      "inputs": [],
      "name": "name",
      "outputs": [
        {
          "internalType": "string",
          "name": "",
          "type": "string"
        }
      ],
      "stateMutability": "view",
      "type": "function"
    },
    {
      "inputs": [],
      "name": "owner",
      "outputs": [
        {
          "internalType": "address",
          "name": "",
          "type": "address"
        }
      ],
      "stateMutability": "view",
      "type": "function"
    },
    {
      "inputs": [
        {
          "internalType": "uint256",
          "name": "tokenId",
          "type": "uint256"
        }
      ],
      "name": "ownerOf",
      "outputs": [
        {
          "internalType": "address",
          "name": "",
          "type": "address"
        }
      ],
      "stateMutability": "view",
      "type": "function"
    },
    {
      "inputs": [],
      "name": "renounceOwnership",
      "outputs": [],
      "stateMutability": "nonpayable",
      "type": "function"
    },
    {
      "inputs": [
        {
          "internalType": "address",
          "name": "from",
          "type": "address"
        },
        {
          "internalType": "address",
          "name": "to",
          "type": "address"
        },
        {
          "internalType": "uint256",
          "name": "tokenId",
          "type": "uint256"
        }
      ],
      "name": "safeTransferFrom",
      "outputs": [],
      "stateMutability": "nonpayable",
      "type": "function"
    },
    {
      "inputs": [
        {
          "internalType": "address",
          "name": "from",
          "type": "address"
        },
        {
          "internalType": "address",
          "name": "to",
          "type": "address"
        },
        {
          "internalType": "uint256",
          "name": "tokenId",
          "type": "uint256"
        },
        {
          "internalType": "bytes",
          "name": "data",
          "type": "bytes"
        }
      ],
      "name": "safeTransferFrom",
      "outputs": [],
      "stateMutability": "nonpayable",
      "type": "function"
    },
    {
      "inputs": [
        {
          "internalType": "address",
          "name": "operator",
          "type": "address"
        },
        {
          "internalType": "bool",
          "name": "approved",
          "type": "bool"
        }
      ],
      "name": "setApprovalForAll",
      "outputs": [],
      "stateMutability": "nonpayable",
      "type": "function"
    },
    {
      "inputs": [
        {
          "internalType": "bytes4",
          "name": "interfaceId",
          "type": "bytes4"
        }
      ],
      "name": "supportsInterface",
      "outputs": [
        {
          "internalType": "bool",
          "name": "",
          "type": "bool"
        }
      ],
      "stateMutability": "view",
      "type": "function"
    },
    {
      "inputs": [],
      "name": "symbol",
      "outputs": [
        {
          "internalType": "string",
          "name": "",
          "type": "string"
        }
      ],
      "stateMutability": "view",
      "type": "function"
    },
    {
      "inputs": [
        {
          "internalType": "uint256",
          "name": "tokenId",
          "type": "uint256"
        }
      ],
      "name": "tokenURI",
      "outputs": [
        {
          "internalType": "string",
          "name": "",
          "type": "string"
        }
      ],
      "stateMutability": "view",
      "type": "function"
    },
    {
      "inputs": [
        {
          "internalType": "address",
          "name": "from",
          "type": "address"
        },
        {
          "internalType": "address",
          "name": "to",
          "type": "address"
        },
        {
          "internalType": "uint256",
          "name": "tokenId",
          "type": "uint256"
        }
      ],
      "name": "transferFrom",
      "outputs": [],
      "stateMutability": "nonpayable",
      "type": "function"
    },
    {
      "inputs": [
        {
          "internalType": "address",
          "name": "newOwner",
          "type": "address"
        }
      ],
      "name": "transferOwnership",
      "outputs": [],
      "stateMutability": "nonpayable",
      "type": "function"
    }
  ],
  "bytecode": "0x6080604052600060075534801561001557600080fd5b50604051611c25380380611c258339810160408190526100349161019e565b828282600061004383826102af565b50600161005082826102af565b5050506001600160a01b03811661008157604051631e4fbdf760e01b81526000600482015260240160405180910390fd5b61008a81610093565b5050505061036d565b600680546001600160a01b038381166001600160a01b0319831681179093556040519116919082907f8be0079c531659141344cd1fd0a4f28419497f9722a3daafe3b4186f6b6457e090600090a35050565b634e487b7160e01b600052604160045260246000fd5b600082601f83011261010c57600080fd5b81516001600160401b03811115610125576101256100e5565b604051601f8201601f19908116603f011681016001600160401b0381118282101715610153576101536100e5565b60405281815283820160200185101561016b57600080fd5b60005b8281101561018a5760208186018101518383018201520161016e565b506000918101602001919091529392505050565b6000806000606084860312156101b357600080fd5b83516001600160a01b03811681146101ca57600080fd5b60208501519093506001600160401b038111156101e657600080fd5b6101f2868287016100fb565b604086015190935090506001600160401b0381111561021057600080fd5b61021c868287016100fb565b9150509250925092565b600181811c9082168061023a57607f821691505b60208210810361025a57634e487b7160e01b600052602260045260246000fd5b50919050565b601f8211156102aa57806000526020600020601f840160051c810160208510156102875750805b601f840160051c820191505b818110156102a75760008155600101610293565b50505b505050565b81516001600160401b038111156102c8576102c86100e5565b6102dc816102d68454610226565b84610260565b6020601f82116001811461031057600083156102f85750848201515b600019600385901b1c1916600184901b1784556102a7565b600084815260208120601f198516915b828110156103405787850151825560209485019460019092019101610320565b508482101561035e5786840151600019600387901b60f8161c191681555b50505050600190811b01905550565b6118a98061037c6000396000f3fe608060405234801561001057600080fd5b50600436106101215760003560e01c80636352211e116100ad578063a22cb46511610071578063a22cb46514610256578063b88d4fde14610269578063c87b56dd1461027c578063e985e9c51461028f578063f2fde38b146102a257600080fd5b80636352211e1461020f57806370a0823114610222578063715018a6146102355780638da5cb5b1461023d57806395d89b411461024e57600080fd5b806323b872dd116100f457806323b872dd146101a357806331494bbb146101b657806332fc7f04146101d757806342842e0e146101ea57806356189236146101fd57600080fd5b806301ffc9a71461012657806306fdde031461014e578063081812fc14610163578063095ea7b31461018e575b600080fd5b6101396101343660046111a6565b6102b5565b60405190151581526020015b60405180910390f35b610156610307565b6040516101459190611213565b610176610171366004611226565b610399565b6040516001600160a01b039091168152602001610145565b6101a161019c36600461125b565b6103c2565b005b6101a16101b1366004611285565b6103d1565b6101c96101c4366004611226565b610461565b6040516101459291906112c2565b6101a16101e5366004611339565b610624565b6101a16101f8366004611285565b610831565b6007545b604051908152602001610145565b61017661021d366004611226565b610851565b6102016102303660046113f4565b61085c565b6101a16108a4565b6006546001600160a01b0316610176565b6101566108b8565b6101a161026436600461140f565b6108c7565b6101a1610277366004611461565b6108d2565b61015661028a366004611226565b6108e9565b61013961029d366004611545565b61095e565b6101a16102b03660046113f4565b61098c565b60006001600160e01b031982166380ac58cd60e01b14806102e657506001600160e01b03198216635b5e139f60e01b145b8061030157506301ffc9a760e01b6001600160e01b03198316145b92915050565b60606000805461031690611578565b80601f016020809104026020016040519081016040528092919081815260200182805461034290611578565b801561038f5780601f106103645761010080835404028352916020019161038f565b820191906000526020600020905b81548152906001019060200180831161037257829003601f168201915b5050505050905090565b60006103a4826109ca565b506000828152600460205260409020546001600160a01b0316610301565b6103cd828233610a03565b5050565b6001600160a01b03821661040057604051633250574960e11b8152600060048201526024015b60405180910390fd5b600061040d838333610a10565b9050836001600160a01b0316816001600160a01b03161461045b576040516364283d7b60e01b81526001600160a01b03808616600483015260248201849052821660448201526064016103f7565b50505050565b60608061049f6040518060400160405280601181526020017037bbb732b927b3143a37b5b2b724b2149d60791b81525061049a85610851565b610b09565b60006104aa84610851565b6001600160a01b0316036104d4576040516379d9be1360e01b8152600481018490526024016103f7565b60008381526008602052604080822081518083019092528054829082906104fa90611578565b80601f016020809104026020016040519081016040528092919081815260200182805461052690611578565b80156105735780601f1061054857610100808354040283529160200191610573565b820191906000526020600020905b81548152906001019060200180831161055657829003601f168201915b5050505050815260200160018201805461058c90611578565b80601f01602080910402602001604051908101604052809291908181526020018280546105b890611578565b80156106055780601f106105da57610100808354040283529160200191610605565b820191906000526020600020905b8154815290600101906020018083116105e857829003601f168201915b5050505050815250509050806000015181602001519250925050915091565b826106715760405162461bcd60e51b815260206004820152601c60248201527f4e616d65732061727261792063616e6e6f7420626520656d7074792e0000000060448201526064016103f7565b6001600160a01b03851660009081526009602052604090819020905161069a90849084906115b2565b9081526040519081900360200190205460ff16156106d15784828260405163f41c2d3f60e01b81526004016103f7939291906115eb565b60005b838110156108295760008585838181106106f0576106f0611610565b90506020028101906107029190611626565b8080601f0160208091040260200160405190810160405280939291908181526020018383808284376000920182905250600780549596509350915061074890508361166d565b909155505060075461075a8882610b4e565b604051806040016040528083815260200186868080601f0160208091040260200160405190810160405280939291908181526020018383808284376000920182905250939094525050838152600860205260409020825190915081906107c090826116db565b50602082015160018201906107d590826116db565b50905050876001600160a01b0316817f4f702e06a1f6360f8c5c1f8fdcbc9c3ca58ec1fca317d02ad7ce162c889951088488886040516108179392919061179a565b60405180910390a350506001016106d4565b505050505050565b61084c838383604051806020016040528060008152506108d2565b505050565b6000610301826109ca565b60006001600160a01b038216610888576040516322718ad960e21b8152600060048201526024016103f7565b506001600160a01b031660009081526003602052604090205490565b6108ac610b68565b6108b66000610b95565b565b60606001805461031690611578565b6103cd338383610be7565b6108dd8484846103d1565b61045b84848484610c86565b60606108f4826109ca565b50600061090c60408051602081019091526000815290565b9050600081511161092c5760405180602001604052806000815250610957565b8061093684610daf565b6040516020016109479291906117ca565b6040516020818303038152906040525b9392505050565b6001600160a01b03918216600090815260056020908152604080832093909416825291909152205460ff1690565b610994610b68565b6001600160a01b0381166109be57604051631e4fbdf760e01b8152600060048201526024016103f7565b6109c781610b95565b50565b6000818152600260205260408120546001600160a01b03168061030157604051637e27328960e01b8152600481018490526024016103f7565b61084c8383836001610e42565b6000828152600260205260408120546001600160a01b0390811690831615610a3d57610a3d818486610f48565b6001600160a01b03811615610a7b57610a5a600085600080610e42565b6001600160a01b038116600090815260036020526040902080546000190190555b6001600160a01b03851615610aaa576001600160a01b0385166000908152600360205260409020805460010190555b60008481526002602052604080822080546001600160a01b0319166001600160a01b0389811691821790925591518793918516917fddf252ad1be2c89b69c2b068fc378daa952ba7f163c4a11628f55a4df523b3ef91a4949350505050565b6103cd8282604051602401610b1f9291906117f9565b60408051601f198184030181529190526020810180516001600160e01b031663319af33360e01b179052610fac565b6103cd828260405180602001604052806000815250610fb5565b6006546001600160a01b031633146108b65760405163118cdaa760e01b81523360048201526024016103f7565b600680546001600160a01b038381166001600160a01b0319831681179093556040519116919082907f8be0079c531659141344cd1fd0a4f28419497f9722a3daafe3b4186f6b6457e090600090a35050565b6001600160a01b038216610c1957604051630b61174360e31b81526001600160a01b03831660048201526024016103f7565b6001600160a01b03838116600081815260056020908152604080832094871680845294825291829020805460ff191686151590811790915591519182527f17307eab39ab6107e8899845ad3d59bd9653f200f220920489ca2b5937696c31910160405180910390a3505050565b6001600160a01b0383163b1561045b57604051630a85bd0160e11b81526001600160a01b0384169063150b7a0290610cc8903390889087908790600401611823565b6020604051808303816000875af1925050508015610d03575060408051601f3d908101601f19168201909252610d0091810190611856565b60015b610d6c573d808015610d31576040519150601f19603f3d011682016040523d82523d6000602084013e610d36565b606091505b508051600003610d6457604051633250574960e11b81526001600160a01b03851660048201526024016103f7565b805181602001fd5b6001600160e01b03198116630a85bd0160e11b14610da857604051633250574960e11b81526001600160a01b03851660048201526024016103f7565b5050505050565b60606000610dbc83610fcc565b600101905060008167ffffffffffffffff811115610ddc57610ddc61144b565b6040519080825280601f01601f191660200182016040528015610e06576020820181803683370190505b5090508181016020015b600019016f181899199a1a9b1b9c1cb0b131b232b360811b600a86061a8153600a8504945084610e1057509392505050565b8080610e5657506001600160a01b03821615155b15610f18576000610e66846109ca565b90506001600160a01b03831615801590610e925750826001600160a01b0316816001600160a01b031614155b8015610ea55750610ea3818461095e565b155b15610ece5760405163a9fbf51f60e01b81526001600160a01b03841660048201526024016103f7565b8115610f165783856001600160a01b0316826001600160a01b03167f8c5be1e5ebec7d5bd14f71427d1e84f3dd0314c0f7b2291e5b200ac8c7c3b92560405160405180910390a45b505b5050600090815260046020526040902080546001600160a01b0319166001600160a01b0392909216919091179055565b610f538383836110a4565b61084c576001600160a01b038316610f8157604051637e27328960e01b8152600481018290526024016103f7565b60405163177e802f60e01b81526001600160a01b0383166004820152602481018290526044016103f7565b6109c78161110a565b610fbf838361112b565b61084c6000848484610c86565b60008072184f03e93ff9f4daa797ed6e38ed64bf6a1f0160401b831061100b5772184f03e93ff9f4daa797ed6e38ed64bf6a1f0160401b830492506040015b6d04ee2d6d415b85acef81000000008310611037576d04ee2d6d415b85acef8100000000830492506020015b662386f26fc10000831061105557662386f26fc10000830492506010015b6305f5e100831061106d576305f5e100830492506008015b612710831061108157612710830492506004015b60648310611093576064830492506002015b600a83106103015760010192915050565b60006001600160a01b038316158015906111025750826001600160a01b0316846001600160a01b031614806110de57506110de848461095e565b8061110257506000828152600460205260409020546001600160a01b038481169116145b949350505050565b60006a636f6e736f6c652e6c6f679050600080835160208501845afa505050565b6001600160a01b03821661115557604051633250574960e11b8152600060048201526024016103f7565b600061116383836000610a10565b90506001600160a01b0381161561084c576040516339e3563760e11b8152600060048201526024016103f7565b6001600160e01b0319811681146109c757600080fd5b6000602082840312156111b857600080fd5b813561095781611190565b60005b838110156111de5781810151838201526020016111c6565b50506000910152565b600081518084526111ff8160208601602086016111c3565b601f01601f19169290920160200192915050565b60208152600061095760208301846111e7565b60006020828403121561123857600080fd5b5035919050565b80356001600160a01b038116811461125657600080fd5b919050565b6000806040838503121561126e57600080fd5b6112778361123f565b946020939093013593505050565b60008060006060848603121561129a57600080fd5b6112a38461123f565b92506112b16020850161123f565b929592945050506040919091013590565b6040815260006112d560408301856111e7565b82810360208401526112e781856111e7565b95945050505050565b60008083601f84011261130257600080fd5b50813567ffffffffffffffff81111561131a57600080fd5b60208301915083602082850101111561133257600080fd5b9250929050565b60008060008060006060868803121561135157600080fd5b61135a8661123f565b9450602086013567ffffffffffffffff81111561137657600080fd5b8601601f8101881361138757600080fd5b803567ffffffffffffffff81111561139e57600080fd5b8860208260051b84010111156113b357600080fd5b60209190910194509250604086013567ffffffffffffffff8111156113d757600080fd5b6113e3888289016112f0565b969995985093965092949392505050565b60006020828403121561140657600080fd5b6109578261123f565b6000806040838503121561142257600080fd5b61142b8361123f565b91506020830135801515811461144057600080fd5b809150509250929050565b634e487b7160e01b600052604160045260246000fd5b6000806000806080858703121561147757600080fd5b6114808561123f565b935061148e6020860161123f565b925060408501359150606085013567ffffffffffffffff8111156114b157600080fd5b8501601f810187136114c257600080fd5b803567ffffffffffffffff8111156114dc576114dc61144b565b604051601f8201601f19908116603f0116810167ffffffffffffffff8111828210171561150b5761150b61144b565b60405281815282820160200189101561152357600080fd5b8160208401602083013760006020838301015280935050505092959194509250565b6000806040838503121561155857600080fd5b6115618361123f565b915061156f6020840161123f565b90509250929050565b600181811c9082168061158c57607f821691505b6020821081036115ac57634e487b7160e01b600052602260045260246000fd5b50919050565b8183823760009101908152919050565b81835281816020850137506000828201602090810191909152601f909101601f19169091010190565b6001600160a01b03841681526040602082018190526000906112e790830184866115c2565b634e487b7160e01b600052603260045260246000fd5b6000808335601e1984360301811261163d57600080fd5b83018035915067ffffffffffffffff82111561165857600080fd5b60200191503681900382131561133257600080fd5b60006001820161168d57634e487b7160e01b600052601160045260246000fd5b5060010190565b601f82111561084c57806000526020600020601f840160051c810160208510156116bb5750805b601f840160051c820191505b81811015610da857600081556001016116c7565b815167ffffffffffffffff8111156116f5576116f561144b565b611709816117038454611578565b84611694565b6020601f82116001811461173d57600083156117255750848201515b600019600385901b1c1916600184901b178455610da8565b600084815260208120601f198516915b8281101561176d578785015182556020948501946001909201910161174d565b508482101561178b5786840151600019600387901b60f8161c191681555b50505050600190811b01905550565b6040815260006117ad60408301866111e7565b82810360208401526117c08185876115c2565b9695505050505050565b600083516117dc8184602088016111c3565b8351908301906117f08183602088016111c3565b01949350505050565b60408152600061180c60408301856111e7565b905060018060a01b03831660208301529392505050565b6001600160a01b03858116825284166020820152604081018390526080606082018190526000906117c0908301846111e7565b60006020828403121561186857600080fd5b81516109578161119056fea2646970667358221220b580a95cb60691c7b34bb6bef52d38385efefc1385b2593860907f5e2d3f8d9a64736f6c634300081b0033",
  "linkReferences": {},
  "deployedLinkReferences": {}
}